:020000040800F2
:10000000000002207109000855090008570900087E
:10001000590900085B0900085D090008000000009C
:100020000000000000000000000000005F09000860
:100030006109000800000000630900086509000864
:10004000C1090008C1090008C1090008C109000868
:10005000C1090008C1090008C1090008C109000858
:10006000C1090008C1090008C1090008C109000848
:10007000C1090008C1090008C1090008C109000838
:10008000C1090008C1090008C109000800000000FA
:10009000000000000000000000000000C10900088E
:1000A000C1090008C1090008C1090008C109000808
:1000B000C1090008C1090008C1090008C1090008F8
:1000C000C1090008C1090008C1090008C1090008E8
:1000D000C1090008C1090008C109000800000000AA
:1000E000C1090008C1090008C1090008000000009A
:1000F000000000000000000000000000C10900082E
:1001000000000000C1090008C1090008C109000879
:1001100000000000000000000000000000000000DF
:10012000C1090008C1090008C1090008C109000887
:10013000C1090008000000000000000000000000ED
:10014000000000000000000000000000C1090008DD
:10015000C1090008C1090008C1090008C109000857
:10016000C1090008C10900080000000000000000EB
:10017000000000000000000000000000000000007F
:1001800000000000C109000800000000000000009D
:08019000C1090008C1090008C3
:100198000348044B834202D0034B03B1184770470E
:1001A8000C0000200C000020000000000548064B51
:1001B8001B1AD90F01EBA301491002D0034B03B15D
:1001C800184770470C0000200C00002000000000B9
:1001D80010B5064C237843B9FFF7DAFF044B13B187
:1001E8000448AFF300800123237010BD0C000020E9
:1001F800000000006816000808B5044B1BB104494C
:100208000448AFF30080BDE80840CFE700000000D5
:10021800100000206816000853B94AB9002908BF21
:1002280000281CBF4FF0FF314FF0FF3000F078B9C5
:10023800ADF1080C6DE904CE00F006F8DDF804E035
:10024800DDE9022304B070472DE9F047089D0E460A
:1002580004460F46002B4AD18A42944665D9B2FA21
:1002680082F242B1C2F12003974020FA03F30CFA5C
:1002780002FC1F4394404FEA1C4E1FFA8CF6B7FB52
:10028800FEF1230C0EFB117743EA074301FB06F04E
:1002980098420AD91CEB030301F1FF3780F0208153
:1002A800984240F21D81023963441B1AA4B2B3FB81
:1002B800FEF00EFB103344EA034400FB06F6A642A8
:1002C8000AD91CEB040400F1FF3380F00B81A6422D
:1002D80040F208816444023840EA0140A41B00212E
:1002E8001DB1D4400023C5E90043BDE8F0878B4227
:1002F80008D9002D00F0F1800021C5E90006084664
:10030800BDE8F087B3FA83F100294AD1B34202D39A
:10031800824200F20081841A66EB0302012017462C
:10032800002DE2D0C5E90047DFE702B9FFDEB2FAE7
:1003380082F2002A40F09480A1EB0C034FEA1C479C
:100348001FFA8CFE0121B3FBF7F607FB1630230CCE
:1003580043EA00430EFB06F0984208D91CEB03035E
:1003680006F1FF3802D2984200F2D28046461B1AA4
:10037800A4B2B3FBF7F007FB103344EA03440EFBC7
:1003880000FEA64508D91CEB040400F1FF3302D295
:10039800A64500F2BA801846A4EB0E0440EA0640CF
:1003A8009EE7C1F120078B4022FA07FC4CEA030CB8
:1003B80006FA01FE20FA07F426FA07F344EA0E04C7
:1003C80000FA01F84FEA1C404FEA1449B3FBF0FE6B
:1003D8001FFA8CF600FB1E3349EA03430EFB06F9AD
:1003E800994502FA01F20BD91CEB03030EF1FF3A0F
:1003F80080F08980994540F28680AEF1020E634410
:10040800A3EB0909A4B2B9FBF0F300FB139944EA82
:10041800094403FB06F6A64208D91CEB040403F1C1
:10042800FF306CD2A6426AD9023B644443EA0E40CC
:10043800A41BA0FB02E6B4427346B14656D353D080
:10044800002D6AD0B8EB030264EB090422FA01F329
:1004580004FA07F71F43CC40C5E90074002144E7BC
:10046800C2F1200120FA01F30CFA02FC26FA01F18C
:10047800964033434FEA1C471FFA8CFEB1FBF7F056
:1004880007FB1016190C41EA064100FB0EF68E42D6
:1004980004FA02F408D91CEB010100F1FF3830D24C
:1004A8008E422ED902386144891B9BB2B1FBF7F604
:1004B80007FB161143EA014306FB0EF1994208D9DE
:1004C8001CEB030306F1FF3817D2994215D9023EF7
:1004D80063445B1A46EA004135E72946284604E7A3
:1004E8003946E2E61846F7E6F045A9D2BEEB020324
:1004F80066EB0C060138B146A2E74646E9E7034633
:1005080094E74046D0E7D6467AE76444023843E7A2
:10051800023E63442BE7084602E72946E5E600BFAA
:10052800704700BF30B58BB000240594069407943B
:100538000894099401941E4B1A6B42F004021A6342
:100548001A6B02F004020192019A02941A6B42F0AB
:1005580080021A631A6B02F080020292029A0394D4
:100568001A6B42F001021A631A6B02F0010203923D
:10057800039A04941A6B42F002021A631B6B03F08D
:1005880002030493049B0B4D22464FF40051284666
:1005980000F0ACFB4FF40053059301230693079436
:1005A800089405A9284600F0B9FA0BB030BD00BF81
:1005B800003802400008024072B6FEE708B50D4850
:1005C8000D4B03604FF48273436000238360C36064
:1005D800036143614FF400728261C3610362436245
:1005E80083620A23C36200F0ADFE00B908BDFFF7BD
:1005F800E3FF00BF280000200030014008B50D4887
:100608000D4B03604FF48273436000238360C36023
:10061800036143614FF400728261C3610362436204
:1006280083620A23C36200F08DFE00B908BDFFF79C
:10063800C3FF00BF800000200038004008B50D4807
:100648000D4B03604FF48273436000238360C360E3
:10065800036143614FF400728261C36103624362C4
:1006680083620A23C36200F06DFE00B908BDFFF77C
:10067800A3FF00BFD8000020003C004008B50A488E
:100688000A4B03604FF4E133436000238360C36087
:1006980003610C2242618361C36100F03BFF00B932
:1006A80008BDFFF789FF00BF30010020004400406B
:1006B80000B595B03022002108A800F07FFF002384
:1006C8000393049305930693079301931F4A116CB0
:1006D80041F080511164126C02F080520192019A2B
:1006E80002931B4B1A6842F440421A601B6803F4D9
:1006F80040430293029B012308934FF480330993EC
:1007080002230E934FF480030F9310231093C023FA
:100718001193062312930423139308A800F0ECFA0C
:1007280078B90F23039302230493002305930693B8
:100738000793012103A800F02FFD20B915B05DF83B
:1007480004FBFFF739FFFFF737FF00BF003802400F
:100758000070004008B500F057F9FFF7A9FFFFF750
:10076800E1FEFFF72BFFFFF749FFFFF767FFFFF7F2
:1007780085FFFEE782B0002100910B4B5A6C42F4D2
:1007880080425A645A6C02F480420092009A0191A5
:100798001A6C42F080521A641B6C03F08053019368
:1007A800019B02B0704700BF00380240F0B58DB021
:1007B80000230793089309930A930B930368414A0C
:1007C800934207D0404A934227D0404A934248D0A8
:1007D8000DB0F0BD002101913D4B5A6C42F480529E
:1007E8005A645A6C02F480520192019A02911A6B6F
:1007F80042F001021A631B6B03F001030293029B90
:10080800E02307930223089303230A9305230B93FA
:1008180007A9304800F082F9DAE7002103912C4B50
:100828001A6C42F480421A641A6C02F480420392F1
:10083800039A04911A6B42F002021A631B6B03F0CD
:1008480002030493049B4FF4444307930223089341
:1008580003230A9305230B9307A91F4800F05EF9A9
:10086800B6E7002405941A4B1A6C42F400421A6445
:100878001A6C02F400420592059A06941A6B42F02B
:1008880002021A631B6B03F002030693069B4FF4E4
:10089800805307930227089703260A9607230B938A
:1008A8000D4D07A9284600F039F93023079308971A
:1008B80009940A9606230B9307A9284600F02EF9F7
:1008C80086E700BF0030014000380040003C00408F
:1008D80000380240000002400004024000B589B020
:1008E8000023039304930593069307930268154B1B
:1008F8009A4202D009B05DF804FB0021019103F58A
:10090800FA331A6C42F400321A641A6C02F4003298
:100918000192019A02911A6B42F001021A631B6B51
:1009280003F001030293029B0C2303930223049315
:10093800032306930723079303A9034800F0EEF85F
:10094800D8E700BF0044004000000240FEE7FEE791
:10095800FEE7FEE7FEE770477047704708B500F00E
:100968006DF808BD70470000DFF834D00D480E4917
:100978000E4A002302E0D458C4500433C4188C42F1
:10098800F9D30B4A0B4C002301E013600432A24256
:10099800FBD3FFF7E7FF00F0EDFDFFF7DBFE704745
:1009A80000000220000000200C000020A81600080B
:1009B8000C00002078010020FEE7000010B5044676
:1009C8000E4B1A784FF47A73B3FBF2F30C4A1068A3
:1009D800B0FBF3F000F08EF868B90F2C01D90120B4
:1009E8000AE0002221464FF0FF3000F04BF8054B9B
:1009F8001C60002000E0012010BD00BF04000020A2
:100A0800000000200800002008B50B4B1A6842F4CB
:100A180000721A601A6842F480621A601A6842F416
:100A280080721A60032000F01BF80F20FFF7C6FF42
:100A3800FFF7A0FE002008BD003C0240034A1168F1
:100A4800034B1B780B441360704700BF74010020F0
:100A580004000020014B1868704700BF7401002093
:100A6800074AD36823F4E0631B041B0C000200F45C
:100A7800E060034343F0BF6343F40033D36070473F
:100A880000ED00E000B5194BDB68C3F30223C3F1A6
:100A9800070CBCF1040F28BF4FF0040C03F1040E3F
:100AA800BEF1060F18D9033B4FF0FF3E0EFA0CFCBF
:100AB80021EA0C0199400EFA03FE22EA0E020A43CB
:100AC80000280BDB1201D2B200F1604000F5614052
:100AD80080F800235DF804FB0023E5E700F00F0031
:100AE8001201D2B2024B1A54F4E700BF00ED00E045
:100AF80014ED00E00138B0F1807F0BD24FF0E02315
:100B08005861054AF02182F82310002098610722D5
:100B18001A6170470120704700ED00E000230F2B99
:100B280000F2DA8030B583B068E085684FEA430E9A
:100B3800032404FA0EF425EA0405CC6804FA0EF43A
:100B48002C438460446824EA02044A68C2F3001211
:100B58009A40224342605FE0DC08083450F82420C1
:100B680003F00705AD004FF00F0E0EFA05FE22EA5E
:100B78000E0E0A69AA4042EA0E0240F824205FE0FD
:100B8800042200E0002202FA0EF22A430234534DF6
:100B980045F82420524A14686FEA0C0224EA0C052E
:100BA800D1F804E01EF4803F01D04CEA04054C4C17
:100BB8002560646802EA0405D1F804E01EF4003FE9
:100BC80001D04CEA0405464C6560A46802EA0405B5
:100BD800D1F804E01EF4801F01D04CEA0405404C13
:100BE800A560E46822404D6815F4001F01D04CEA66
:100BF80004023B4CE26001330F2B6BD801229A4070
:100C08000C6804EA020C32EA0404F4D14C6804F0DB
:100C18000304013C012C88D94A6802F00302032A24
:100C280009D0C4685D000322AA4024EA02048A6845
:100C3800AA402243C2604A6802F00302022A8BD00B
:100C480004684FEA430E032202FA0EF224EA020471
:100C58004A6802F0030202FA0EF2224302604A686E
:100C680012F4403FC7D0002201921E4A546C44F44B
:100C780080445464526C02F480420192019A9C08A8
:100C8800A51C164A52F8255003F0030E4FEA8E0EA3
:100C98000F2202FA0EF225EA0205134A90423FF4A7
:100CA80071AF02F5806290420ED002F580629042E8
:100CB8000CD002F5806290420AD002F58062904220
:100CC8003FF45EAF07225EE701225CE702225AE7A3
:100CD800032258E703B030BD704700BF0038014019
:100CE800003C014000380240000002400AB1816126
:100CF8007047090481617047002800F0E08170B5F1
:100D080082B00446036813F0010F3BD09F4B9B68E9
:100D180003F00C03042B2CD09C4B9B6803F00C03B2
:100D2800082B21D06368B3F5803F4FD0B3F5A02FCF
:100D380052D0964B1A6822F480321A601A6822F44C
:100D480080221A606368002B50D0FFF783FE0546A7
:100D58008E4B1B6813F4003F14D1FFF77BFE401B3A
:100D68006428F5D90320B1E1884B5B6813F4800F40
:100D7800D8D0864B1B6813F4003F03D06368002B60
:100D880000F09F81236813F0020F54D07F4B9B68BB
:100D980013F00C0F3ED07D4B9B6803F00C03082B1F
:100DA80033D0E368002B68D0794B01221A60FFF733
:100DB80051FE0546754B1B6813F0020F54D1FFF71F
:100DC80049FE401B0228F5D903207FE16F4A1368CA
:100DD80043F480331360B5E76C4B1A6842F4802201
:100DE8001A601A6842F480321A60ABE7FFF732FEE5
:100DF8000546664B1B6813F4003FC3D0FFF72AFE75
:100E0800401B6428F5D9032060E1604B5B6813F44C
:100E1800800FC6D15D4B1B6813F0020F03D0E36847
:100E2800012B40F05081594A136823F0F8032169D7
:100E380043EAC1031360236813F0080F42D06369C3
:100E48006BB3534B0122C3F8802EFFF703FE054610
:100E58004E4B5B6F13F0020F34D1FFF7FBFD401BC5
:100E68000228F5D9032031E1484A136823F0F80332
:100E7800216943EAC1031360DDE7454B00221A608C
:100E8800FFF7E8FD0546414B1B6813F0020FD2D06F
:100E9800FFF7E0FD401B0228F5D9032016E13C4B83
:100EA8000022C3F8802EFFF7D5FD0546374B5B6F50
:100EB80013F0020F06D0FFF7CDFD401B0228F5D92D
:100EC800032003E1236813F0040F77D02F4B1B6C2A
:100ED80013F0805F33D1002301932C4B1A6C42F03E
:100EE80080521A641B6C03F080530193019B012507
:100EF800284B1B6813F4807F23D0A368012B34D0C0
:100F0800052B38D0214B1A6F22F001021A671A6F8D
:100F180022F004021A67A368002B3DD0FFF79AFD60
:100F280006461A4B1B6F13F0020F46D1FFF792FDCE
:100F3800801B41F288339842F3D90320C6E000258C
:100F4800D6E7144A136843F480731360FFF782FDF1
:100F58000646104B1B6813F4807FCED1FFF77AFD4D
:100F6800801B0228F5D90320B0E0084A136F43F02C
:100F780001031367CFE7054B1A6F42F004021A67A3
:100F88001A6F42F001021A67C5E700BF0038024035
:100F98000000474200700040FFF75CFD0646524BD8
:100FA8001B6F13F0020F08D0FFF754FD801B41F2AE
:100FB80088339842F3D9032088E0EDB9A369002B60
:100FC80000F08380484A926802F00C02082A51D047
:100FD800022B17D0454B00221A66FFF73BFD04464B
:100FE800414B1B6813F0007F42D0FFF733FD001B15
:100FF8000228F5D9032069E03B4A136C23F080539B
:101008001364DBE7394B00221A66FFF723FD054618
:10101800354B1B6813F0007F06D0FFF71BFD401B04
:101028000228F5D9032051E0E369226A1343626A72
:1010380043EA8213A26A5208013A43EA0243E26A87
:1010480043EA0263284A5360284B01221A66FFF7D5
:1010580001FD0446244B1B6813F0007F06D1FFF7FF
:10106800F9FC001B0228F5D903202FE000202DE011
:1010780000202BE0012B2BD01B4B5B6803F4800175
:10108800E269914226D103F03F02216A8A4223D1C4
:10109800616A47F6C0721A40B2EB811F1ED103F491
:1010A8004031A26A5208013AB1EB024F18D103F05D
:1010B8007063E26AB3EB026F14D1002006E00120EE
:1010C8007047012002E0012000E0002002B070BD5E
:1010D8000120FBE70120F9E70120F7E70120F5E708
:1010E8000120F3E70120F1E7003802400000474201
:1010F80008B5264B9B6803F00C03042B41D0082B42
:1011080041D1224B5A6802F03F025B6813F4800F0A
:1011180012D01E4B5968C1F388111D480023A1FB4A
:101128000001FFF779F8194B5B68C3F301430133FA
:101138005B00B0FBF3F027E0144B5868C0F388104D
:101148004FEA401CBCEB000C6EEB0E0E4FEA8E1300
:1011580043EA9C634FEA8C11B1EB0C0163EB0E037D
:10116800DB0043EA5173C90011EB000C43F10003A3
:10117800990200234FEA8C2041EA9C51FFF74CF872
:10118800D1E7034800E0034808BD00BF003802402B
:1011980040787D010024F400002800F09B8070B5A1
:1011A8000D4604464F4B1B6803F007038B4208D2D9
:1011B800CBB24C4A1370136803F007038B4240F01C
:1011C8008B80236813F0020F17D013F0040F04D09C
:1011D800454A936843F4E0539360236813F0080F7B
:1011E80004D0414A936843F4604393603E4A93684D
:1011F80023F0F003A1680B439360236813F0010FF9
:1012080032D06368012B21D09A1E012A25D9364A8B
:10121800126812F0020F61D033498A6822F0030283
:1012280013438B60FFF716FC06462F4B9B6803F0B1
:101238000C036268B3EB820F16D0FFF70BFC801B20
:1012480041F288339842F0D9032042E0264A1268D6
:1012580012F4003FE0D101203BE0234A126812F06B
:10126800007FD9D1012034E01E4B1B6803F007032F
:10127800AB4207D9EAB21B4B1A701B6803F007038D
:10128800AB422DD1236813F0040F06D0164A936899
:1012980023F4E053E1680B439360236813F0080FCD
:1012A80007D0114A936823F46043216943EAC103D4
:1012B8009360FFF71DFF0C4B9B68C3F303130B4AA6
:1012C800D35CD8400A4B18600A4B1868FFF776FBC6
:1012D800002070BD012070470120FAE70120F8E7DF
:1012E8000120F6E7003C0240003802408016000862
:1012F8000000002008000020014B1868704700BF5C
:101308000000002008B5FFF7F7FF044B9B68C3F304
:101318008223034AD35CD84008BD00BF003802408E
:101328009016000808B5FFF7E7FF044B9B68C3F366
:101338004233034AD35CD84008BD00BF003802409E
:101348009016000800285AD010B50446436A33B9ED
:101358004368B3F5827F05D00023C36102E0002310
:10136800036143610023A36294F85130002B40D0FD
:10137800022384F851302268136823F04003136075
:10138800636803F48273A26802F404421343E268B8
:1013980002F400621343226902F0020213436269F5
:1013A80002F001021343A26902F400721343E269D6
:1013B80002F038021343226A02F080021343A26A41
:1013C80002F40052216813430B60638B03F004039B
:1013D800626A02F01002216813434B602268D369E5
:1013E80023F40063D36100206065012384F8513041
:1013F80010BD84F850302046FFF7D8F9B8E701202F
:101408007047000010B504460268136923F440537E
:10141800C1680B431361836802691A4343691A431D
:10142800C3691A430168CB6823F4164323F00C03FD
:101438001343CB600268536923F4407381690B43FB
:1014480053610368314A934206D002F580629342A1
:1014580002D0FFF757FF01E0FFF764FFE369B3F538
:10146800004F29D00021031849411B1841F1000100
:10147800C90041EA5371DB00181863684FEA830218
:101488004FEA937341F10001FEF7C6FE204AA2FB22
:1014980000314909642303FB11031B013233A2FB0A
:1014A80003235B0903F0F00202EB011203F00F03C0
:1014B800216813448B6010BD0023021843EB03011D
:1014C800121841F10001C90041EA5271D200101806
:1014D80041F10001626892185B41FEF79DFE0C4ADB
:1014E800A2FB00314909642303FB1103DB003233FB
:1014F800A2FB03235B095A0002F4F87202EB011203
:1015080003F00703216813448B60D4E700100140FF
:101518001F85EB5158B310B5044690F83D300BB316
:10152800242384F83D302268D36823F40053D36021
:101538002046FFF767FF2268136923F4904313617D
:101548002268536923F02A0353612268D36843F45D
:101558000053D36000202064202384F83D3084F8B1
:101568003E3010BD80F83C30FFF7B8F9D8E70120CD
:101578007047000070B50D4E0D4D761BB61006D0A5
:10158800002455F8043B01349847A642F9D1094E86
:10159800094D761B00F064F8B61006D0002455F803
:1015A800043B01349847A642F9D170BDA016000843
:1015B800A0160008A4160008A0160008830730B576
:1015C80048D0541E002A3FD0CAB2034601E0013C6D
:1015D8003AD303F8012B9D07F9D1032C2DD9CDB2AD
:1015E80045EA05250F2C45EA054536D9A4F1100230
:1015F80022F00F0C03F1200EE6444FEA121C03F10F
:10160800100242E9045542E9025510327245F8D1F8
:101618000CF1010214F00C0F03EB021204F00F0C92
:1016280013D0ACF1040323F003030433134442F84A
:10163800045B9342FBD10CF003042CB1C9B21C44E7
:1016480003F8011B9C42FBD130BD64461346002CB5
:10165800F4D1F9E703461446BFE71A46A446E0E783
:10166800F8B500BFF8BC08BC9E467047F8B500BF87
:08167800F8BC08BC9E46704757
:101680000000000000000000010203040607080932
:08169000000000000102030448
:08169800B8EBFF7F0100000028
:0416A000010200083B
:0416A400D901000860
:0C16A8000024F40001000000100000000D
:040000050800097175
:00000001FF
