:020000040800F2
:1000000000000220690B00087D0A00087F0A000832
:10001000810A0008830A0008850A00080000000021
:10002000000000000000000000000000870A000837
:10003000890A0008000000008B0A00088D0A0008E9
:10004000B90B0008B90B0008B90B0008B90B000880
:10005000B90B0008950A0008B90B0008B90B000895
:10006000B90B0008B90B0008B90B0008B90B000860
:10007000B90B0008B90B0008B90B0008B90B000850
:10008000B90B0008B90B0008B90B0008000000000C
:10009000000000000000000000000000B90B000894
:1000A000B90B0008B90B0008B90B0008B90B000820
:1000B000B90B0008B90B0008B90B0008B90B000810
:1000C000B90B0008B90B0008B90B0008B90B000800
:1000D000B90B0008B90B0008990A000800000000DD
:1000E000B90B0008B90B0008B90B000800000000AC
:1000F000000000000000000000000000B90B000834
:1001000000000000B90B0008B90B0008B90B00088B
:1001100000000000000000000000000000000000DF
:10012000B90B0008B90B0008B90B0008B90B00089F
:10013000B90B0008000000000000000000000000F3
:10014000000000000000000000000000B90B0008E3
:10015000B90B0008B90B0008B90B0008B90B00086F
:10016000B90B0008B90B00080000000000000000F7
:10017000000000000000000000000000000000007F
:1001800000000000B90B00080000000000000000A3
:08019000B90B0008B90B0008CF
:100198000348044B834202D0034B03B1184770470E
:1001A8001000002010000020000000000548064B49
:1001B8001B1AD90F01EBA301491002D0034B03B15D
:1001C80018477047100000201000002000000000B1
:1001D80010B5064C237843B9FFF7DAFF044B13B187
:1001E8000448AFF300800123237010BD10000020E5
:1001F800000000004C1F000808B5044B1BB104495F
:100208000448AFF30080BDE80840CFE700000000D5
:10021800140000204C1F000853B94AB9002908BF30
:1002280000281CBF4FF0FF314FF0FF3000F078B9C5
:10023800ADF1080C6DE904CE00F006F8DDF804E035
:10024800DDE9022304B070472DE9F047089D0E460A
:1002580004460F46002B4AD18A42944665D9B2FA21
:1002680082F242B1C2F12003974020FA03F30CFA5C
:1002780002FC1F4394404FEA1C4E1FFA8CF6B7FB52
:10028800FEF1230C0EFB117743EA074301FB06F04E
:1002980098420AD91CEB030301F1FF3780F0208153
:1002A800984240F21D81023963441B1AA4B2B3FB81
:1002B800FEF00EFB103344EA034400FB06F6A642A8
:1002C8000AD91CEB040400F1FF3380F00B81A6422D
:1002D80040F208816444023840EA0140A41B00212E
:1002E8001DB1D4400023C5E90043BDE8F0878B4227
:1002F80008D9002D00F0F1800021C5E90006084664
:10030800BDE8F087B3FA83F100294AD1B34202D39A
:10031800824200F20081841A66EB0302012017462C
:10032800002DE2D0C5E90047DFE702B9FFDEB2FAE7
:1003380082F2002A40F09480A1EB0C034FEA1C479C
:100348001FFA8CFE0121B3FBF7F607FB1630230CCE
:1003580043EA00430EFB06F0984208D91CEB03035E
:1003680006F1FF3802D2984200F2D28046461B1AA4
:10037800A4B2B3FBF7F007FB103344EA03440EFBC7
:1003880000FEA64508D91CEB040400F1FF3302D295
:10039800A64500F2BA801846A4EB0E0440EA0640CF
:1003A8009EE7C1F120078B4022FA07FC4CEA030CB8
:1003B80006FA01FE20FA07F426FA07F344EA0E04C7
:1003C80000FA01F84FEA1C404FEA1449B3FBF0FE6B
:1003D8001FFA8CF600FB1E3349EA03430EFB06F9AD
:1003E800994502FA01F20BD91CEB03030EF1FF3A0F
:1003F80080F08980994540F28680AEF1020E634410
:10040800A3EB0909A4B2B9FBF0F300FB139944EA82
:10041800094403FB06F6A64208D91CEB040403F1C1
:10042800FF306CD2A6426AD9023B644443EA0E40CC
:10043800A41BA0FB02E6B4427346B14656D353D080
:10044800002D6AD0B8EB030264EB090422FA01F329
:1004580004FA07F71F43CC40C5E90074002144E7BC
:10046800C2F1200120FA01F30CFA02FC26FA01F18C
:10047800964033434FEA1C471FFA8CFEB1FBF7F056
:1004880007FB1016190C41EA064100FB0EF68E42D6
:1004980004FA02F408D91CEB010100F1FF3830D24C
:1004A8008E422ED902386144891B9BB2B1FBF7F604
:1004B80007FB161143EA014306FB0EF1994208D9DE
:1004C8001CEB030306F1FF3817D2994215D9023EF7
:1004D80063445B1A46EA004135E72946284604E7A3
:1004E8003946E2E61846F7E6F045A9D2BEEB020324
:1004F80066EB0C060138B146A2E74646E9E7034633
:1005080094E74046D0E7D6467AE76444023843E7A2
:10051800023E63442BE7084602E72946E5E600BFAA
:10052800704700BF70B58AB00024059406940794FC
:100538000894099401942B4B1A6B42F004021A6335
:100548001A6B02F004020192019A02941A6B42F0AB
:1005580080021A631A6B02F080020292029A0394D4
:100568001A6B42F001021A631A6B02F0010203923D
:10057800039A04941A6B42F002021A631B6B03F08D
:1005880002030493049B184E22464FF40051304650
:1005980000F0B8FC4FF40053059301250695079425
:1005A800089405A9304600F0D7FB059506940795F1
:1005B8000E4D05A9284600F0CFFB4FF48073059334
:1005C8000694079405A9284600F0C6FB4FF440732B
:1005D80005930694079405A9054800F0BDFB0AB0E9
:1005E80070BD00BF00380240000802400000024011
:1005F80000040240044A1078044B19780844C0B239
:1006080011701870704700BF000000200100002022
:100618002DE9D00172B6136823F48273136014684D
:1006280044F04004134643F8084B02F10C0401441B
:1006380007468F4208D21E6816F0020FFBD057F803
:10064800018B84F80080F4E71E6816F0020FFBD0D7
:10065800936813F0800FFBD1136823F040031360F5
:10066800BDE8D0017047000030B59BB030220021B2
:100678000EA801F015FC002409940A940B940C941C
:100688000D94039404940594069407940894019493
:100698001F4B1A6C42F080521A641B6C03F0805393
:1006A8000193019B02941B4B1A6842F440421A6062
:1006B8001B6803F440430293029B05230E934FF4F7
:1006C80080330F9301231093022514954FF4800370
:1006D80015931423169380231793189504231993BD
:1006E8000EA800F015FC0F2309930A950B944FF4FC
:1006F80080530C930D93294609A800F053FE0395E7
:100708004FF48073079303A800F022FF1BB030BD9D
:10071800003802400070004030B58FB000F070FA29
:10072800FFF7A2FFFFF7FEFE00F044F800F068F8BC
:1007380000F0C2F800F01EF900F0BAF90024312CDC
:1007480008D8FFF757FF04F138036B4403F8340C5B
:100758000134F4E7124D01224FF40051284600F00D
:10076800D1FB104A136823F0400313600E490B684D
:1007780023F040030B600D4C236823F040032360F3
:10078800322101A8FFF744FF2246322101A8FFF7D2
:100798003FFF00224FF40051284600F0B3FBFEE76C
:1007A800000802400030014000380040003C004092
:1007B8007047000008B50948094B036000234360EF
:1007C8007F228260FF22C26003614361836100F07F
:1007D800AEFF00B908BDFFF7EBFFFBE72C000020D8
:1007E800002800400268044B9A4200D07047034B2F
:1007F8000122C3F83C2EF9E70028004000004742D8
:100808002DE9F04192B02822002108A801F048FB08
:100818000024029403940494059406940794234BAB
:100828005A6C42F480525A645A6C02F48052019213
:10083800019A1A6B42F001021A631B6B03F0010361
:100848000093009BA0230293022503954FF0030811
:10085800CDF81080069505270797154E02A9304652
:1008680001F01CFA402302930395CDF810800594FB
:100878000694079702A9304601F010FA08940994E3
:100888000A940B940C944FF400730D930F941094E6
:100898000A231193074C08A9204601F0A3FA6368BC
:1008A80023F01003636012B0BDE8F0810038024005
:1008B80000000240003001402DE9F04192B02822AA
:1008C800002108A801F0ECFA00240294039404948F
:1008D800059406940794244B1A6C42F480421A64D7
:1008E8001A6C02F480420192019A1A6B42F00202D9
:1008F8001A631B6B03F002030093009B4FF4204321
:100908000293022503954FF00308CDF81080069551
:1009180005270797154E02A9304601F0BFF94FF495
:10092800804302930395CDF81080059406940797A9
:1009380002A9304601F0B2F9089409940A940B947C
:100948000C944FF400730D930F9410940A23119391
:10095800074C08A9204601F045FA636823F0100304
:10096800636012B0BDE8F081003802400004024024
:10097800003800402DE9F04192B028252A46002190
:1009880008A801F08DFA00240294039404940594B5
:1009980006940794224B1A6C42F400421A641A6CAB
:1009A80002F400420192019A1A6B42F002021A63A1
:1009B8001B6B03F002030093009B0295022503952D
:1009C8004FF00308CDF81080069506270797154EB7
:1009D80002A9304601F062F9102302930395CDF87D
:1009E800108005940694079702A9304601F056F93D
:1009F800089409940A940B940C944FF400730D9383
:100A08000F9410940A231193074C08A9204601F06B
:100A1800E9F9636823F01003636012B0BDE8F08160
:100A28000038024000040240003C004000B583B09A
:100A3800002100910E4B5A6C42F480425A645A6C61
:100A480002F480420092009A01911A6C42F080529E
:100A58001A641B6C03F080530193019B0A4605201E
:100A680000F00CF9052000F041F903B05DF804FB33
:100A7800003802407047FEE7FEE7FEE7FEE77047F2
:100A88007047704708B500F0D5F808BD70470000FA
:100A980008B5024801F066F808BD00BF4C00002008
:100AA800024B4FF000629A60704700BF00ED00E013
:100AB80008B50A480A4B03604FF4E133436000234A
:100AC8008360C36003610C2242618361C36100F0EB
:100AD800BBFF00B908BDFFF76BFEFBE74C00002029
:100AE8000044004010B588B0002303930493059395
:100AF800069307930268184B9A4201D008B010BDBC
:100B08000024019403F5FA331A6C42F400321A6493
:100B18001A6C02F400320192019A02941A6B42F0A4
:100B280001021A631B6B03F001030293029B0C235F
:100B3800039302230493032306930723079303A92C
:100B4800064800F009F922462146262000F096F8CA
:100B5800262000F0CBF8D1E7004400400000024016
:100B6800DFF834D0002103E00C4B5B5843500431CC
:100B78000B480C4B42189A42F6D30B4A02E000236A
:100B880042F8043B094B9A42F9D3FFF789FF01F079
:100B980063F9FFF7C1FD7047000002208C1F0008B1
:100BA800000000201000002010000020900000200D
:100BB800FEE7000010B504460E4B1A784FF47A731E
:100BC800B3FBF2F30C4A1068B0FBF3F000F09CF8AA
:100BD80068B90F2C01D901200AE0002221464FF004
:100BE800FF3000F04BF8054B1C60002000E00120AE
:100BF80010BD00BF08000020040000200C000020E9
:100C080008B50B4B1A6842F400721A601A6842F46D
:100C180080621A601A6842F480721A60032000F039
:100C28001BF80020FFF7C6FFFFF700FF002008BDF4
:100C3800003C0240034A1168034B1B780B441360C5
:100C4800704700BF8C00002008000020014B186886
:100C5800704700BF8C000020074AD36823F4E06384
:100C68001B041B0C000200F4E060034343F0BF6365
:100C780043F40033D360704700ED00E000B5194B32
:100C8800DB68C3F30223C3F1070CBCF1040F28BFD0
:100C98004FF0040C03F1040EBEF1060F18D9033B04
:100CA8004FF0FF3E0EFA0CFC21EA0C0199400EFAB7
:100CB80003FE22EA0E020A4300280BDB1201D2B21D
:100CC80000F1604000F5614080F800235DF804FB06
:100CD8000023E5E700F00F001201D2B2024B1A54CC
:100CE800F4E700BF00ED00E014ED00E0002807DBAA
:100CF80000F01F02400901239340024A42F82030C5
:100D0800704700BF00E100E00138B0F1807F0BD2EE
:100D18004FF0E0235861054AF02182F823100020A3
:100D2800986107221A6170470120704700ED00E0C2
:100D380090F83530DBB2022B03D0802343650120C5
:100D48007047052380F835300268136823F00103E3
:100D5800136000207047000000230F2B00F2C880AA
:100D6800F0B583B03AE0042200E00022AA40324302
:100D78000234604D45F824205F4A14686FEA0C027B
:100D880024EA0C054E6816F4803F01D04CEA0405AD
:100D9800594C2560646802EA04054E6816F4003F61
:100DA80001D04CEA0405544C6560A46802EA0405C5
:100DB8004E6816F4801F01D04CEA04054E4CA5601D
:100DC800E46822404D6815F4001F01D04CEA040283
:100DD800494CE26001330F2B00F2888001229A40CF
:100DE8000C6804EA020C32EA0404F3D14C68651E6C
:100DF800012D03D9112C01D0122C12D185685E0067
:100E08000324B44025EA0405CC68B4402C4384602C
:100E1800446824EA02044A68C2F300129A40224352
:100E28004260C5684FEA430E032202FA0EF2D44329
:100E380025EA02058A6802FA0EF22A43C2604A6865
:100E4800022A01D0122A0FD1DD08083550F8257082
:100E580003F00706B6000F22B24027EA02070A6924
:100E6800B2403A4340F82520026814404A6802F02C
:100E7800030202FA0EF2224302604A6812F0805F0F
:100E8800A8D0002201921D4A546C44F48044546452
:100E9800526C02F480420192019A9C08A51C154AE2
:100EA80052F8256003F00305AD000F22AA4026EA98
:100EB8000206134A90423FF458AF02F5806290420E
:100EC8000ED002F5806290420CD002F5806290420A
:100ED8000AD002F5806290423FF445AF072245E709
:100EE800012243E7022241E703223FE703B0F0BDB6
:100EF800704700BF00380140003C01400038024004
:100F0800000002400AB1816170470904816170479D
:100F1800002800F0DA8170B582B00446036813F047
:100F2800010F3BD09F4B9B6803F00C03042B2CD084
:100F38009C4B9B6803F00C03082B21D06368B3F526
:100F4800803F4FD0B3F5A02F52D0964B1A6822F4A9
:100F580080321A601A6822F480221A606368002BB3
:100F680050D0FFF773FE05468E4B1B6813F4003F05
:100F780014D1FFF76BFE401B6428F5D90320ABE1C1
:100F8800884B5B6813F4800FD8D0864B1B6813F42A
:100F9800003F03D06368002B00F09981236813F0A9
:100FA800020F54D07F4B9B6813F00C0F3ED07D4B43
:100FB8009B6803F00C03082B33D0E368002B68D040
:100FC800794B01221A60FFF741FE0546754B1B68F5
:100FD80013F0020F54D1FFF739FE401B0228F5D950
:100FE800032079E16F4A136843F480331360B5E74F
:100FF8006C4B1A6842F480221A601A6842F48032F4
:101008001A60ABE7FFF722FE0546664B1B6813F430
:10101800003FC3D0FFF71AFE401B6428F5D9032010
:101028005AE1604B5B6813F4800FC6D15D4B1B68B7
:1010380013F0020F03D0E368012B40F04A81594AAC
:10104800136823F0F803216943EAC1031360236896
:1010580013F0080F42D063696BB3534B0122C3F8F6
:10106800802EFFF7F3FD05464E4B5B6F13F0020F22
:1010780034D1FFF7EBFD401B0228F5D903202BE103
:10108800484A136823F0F803216943EAC10313604F
:10109800DDE7454B00221A60FFF7D8FD0546414BB6
:1010A8001B6813F0020FD2D0FFF7D0FD401B0228B7
:1010B800F5D9032010E13C4B0022C3F8802EFFF73E
:1010C800C5FD0546374B5B6F13F0020F06D0FFF7DF
:1010D800BDFD401B0228F5D90320FDE0236813F06D
:1010E800040F77D02F4B1B6C13F0805F33D1002394
:1010F80001932C4B1A6C42F080521A641B6C03F05B
:1011080080530193019B0125284B1B6813F4807FB2
:1011180023D0A368012B34D0052B38D0214B1A6F6C
:1011280022F001021A671A6F22F004021A67A368F4
:10113800002B3DD0FFF78AFD06461A4B1B6F13F0B4
:10114800020F46D1FFF782FD801B41F28833984297
:10115800F3D90320C0E00025D6E7144A136843F406
:1011680080731360FFF772FD0646104B1B6813F47B
:10117800807FCED1FFF76AFD801B0228F5D90320B6
:10118800AAE0084A136F43F001031367CFE7054B42
:101198001A6F42F004021A671A6F42F001021A67C6
:1011A800C5E700BF00380240000047420070004019
:1011B800FFF74CFD06464F4B1B6F13F0020F08D08C
:1011C800FFF744FD801B41F288339842F3D903208E
:1011D80082E0E5B9A369002B7DD0464A926802F007
:1011E8000C02082A51D0022B17D0434B00221A6652
:1011F800FFF72CFD04463F4B1B6813F0007F42D0DD
:10120800FFF724FD001B0228F5D9032064E0394AC2
:10121800136C23F080531364DCE7374B00221A6603
:10122800FFF714FD0546334B1B6813F0007F06D00B
:10123800FFF70CFD401B0228F5D903204CE0E369B9
:10124800226A1343626A43EA8213A26A5208013A85
:1012580043EA0243E26A43EA0263264A5360264BA2
:1012680001221A66FFF7F2FC0446224B1B6813F0B2
:10127800007F06D1FFF7EAFC001B0228F5D90320FE
:101288002AE0002028E0002026E0012B26D0194B78
:101298005B6803F48001E269914221D103F03F02C7
:1012A800216A8A421ED1616A47F6C0721A408A4290
:1012B8001AD103F44032A16A8A4217D103F070634D
:1012C800E26A934214D1002006E001207047012011
:1012D80002E0012000E0002002B070BD0120FBE721
:1012E8000120F9E70120F7E70120F5E70120F3E7FE
:1012F8000120F1E7003802400000474208B5264BBC
:101308009B6803F00C03042B41D0082B41D1224BDE
:101318005A6802F03F025B6813F4800F12D01E4B2C
:101328005968C1F388111D480023A1FB0001FEF78D
:1013380073FF194B5B68C3F3014301335B00B0FBD8
:10134800F3F027E0144B5868C0F388104FEA401CAC
:10135800BCEB000C6EEB0E0E4FEA8E1343EA9C6357
:101368004FEA8C11B1EB0C0163EB0E03DB0043EA8F
:101378005173C90011EB000C43F1000399020023DB
:101388004FEA8C2041EA9C51FEF746FFD1E703481B
:1013980000E0034808BD00BF0038024040787D01E6
:1013A8000024F400002800F09B8070B50D46044628
:1013B8004F4B1B6803F00F038B4208D2CBB24C4A49
:1013C8001370136803F00F038B4240F08B8023687F
:1013D80013F0020F17D013F0040F04D0454A936896
:1013E80043F4E0539360236813F0080F04D0414A94
:1013F800936843F4604393603E4A936823F0F00394
:10140800A1680B439360236813F0010F32D063681F
:10141800012B21D09A1E012A25D9364A126812F0CA
:10142800020F61D033498A6822F0030213438B60AC
:10143800FFF70CFC06462F4B9B6803F00C03626811
:10144800B3EB820F16D0FFF701FC801B41F2883303
:101458009842F0D9032042E0264A126812F4003F6D
:10146800E0D101203BE0234A126812F0007FD9D175
:10147800012034E01E4B1B6803F00F03AB4207D971
:10148800EAB21B4B1A701B6803F00F03AB422DD155
:10149800236813F0040F06D0164A936823F4E05328
:1014A800E1680B439360236813F0080F07D0114AD3
:1014B800936823F46043216943EAC1039360FFF70B
:1014C8001DFF0C4B9B68C3F303130B4AD35CD84036
:1014D8000A4B18600A4B1868FFF76CFB002070BDB8
:1014E800012070470120FAE70120F8E70120F6E71C
:1014F800003C024000380240641F0008040000203D
:101508000C000020014B1868704700BF0400002041
:1015180008B5FFF7F7FF044B9B68C3F38223034A20
:10152800D35CD84008BD00BF00380240741F0008D3
:1015380008B5FFF7E7FF044B9B68C3F34233034A40
:10154800D35CD84008BD00BF00380240741F0008B3
:1015580030B583B00446036813F0050F0ED1236835
:1015680013F0020F38D1236813F0080F00F09D80A4
:10157800227D4F4BC3F8E021002097E04D4B00221D
:101588009A66FFF763FB05464B4B1B6813F0006F29
:1015980006D0FFF75BFB431B022BF5D9032085E040
:1015A8006368A26843EA8213E26843EA0273424A24
:1015B800C2F884303F4B01229A66FFF747FB054685
:1015C8003D4B1B6813F0006FC9D1FFF73FFB401B71
:1015D8000228F5D9032069E000230193364B1A6CE1
:1015E80042F080521A641B6C03F080530193019BF4
:1015F800324A136843F480731360FFF727FB0546EC
:101608002E4B1B6813F4807F06D1FFF71FFB431B8B
:10161800022BF5D9032049E0274B1B6F13F44073C5
:1016280014D0226902F440729A420FD0224B1A6FEA
:1016380022F440721F490120C1F8400E0020C1F871
:10164800400E1A671B6F13F0010F12D1236903F4C0
:101658004072B2F5407F1DD0174A936823F4F813FF
:10166800936015490B6F2269C2F30B0213430B6792
:1016780079E7FFF7EBFA05460F4B1B6F13F0020FE4
:10168800E4D1FFF7E3FA401B41F288339842F3D9DB
:1016980003200BE008498A6822F4F81223F070430B
:1016A80023F4407313438B60DBE7002003B030BDA5
:1016B80000104742000047420038024000700040D6
:1016C80038B504460268D36823F0A003D360FFF757
:1016D800BDFA05462368DB6813F0200F07D1FFF732
:1016E800B5FA401BB0F57A7FF4D9032000E000205A
:1016F80038BD38B50368DA6812F0400F01D0002011
:1017080038BD04464FF0FF32DA60FFF79FFA05460E
:101718002368DB6813F0400F07D1FFF797FA431BE4
:10172800B3F57A7FF4D90320EAE70020E8E738B573
:1017380000285CD00446437F002B41D00223637706
:101748002368CA225A62236853225A622046FFF746
:10175800D0FF0546002837D12268936823F4E003B8
:1017680023F04003936021688A6863682069034313
:101778006069034313438B602368E2681A61226837
:101788001369A16843EA014313612268D36823F00F
:101798008003D36023689B6813F0200F1BD0226856
:1017A800136C23F4802313642268136CA1690B4320
:1017B80013642368FF225A6201236377284638BDE1
:1017C8000377FFF70FF8B9E72368FF225A6204236B
:1017D80063770125F2E72046FFF772FF0028DED085
:1017E8002368FF225A62042363770125E6E701256F
:1017F800E4E70268D36823F49073D36002685369FE
:1018080023F001035361202380F83A30704790F8A1
:101818003930DBB2212B01D0022070478368B3F541
:10182800805F17D0036A5A1C02621A7803685A60EC
:10183800C38C9BB2013B9BB2C3844BB90268D3688B
:1018480023F08003D3600268D36843F04003D36079
:1018580000207047036A1B880268C3F308035360BB
:1018680003691BB9036A02330362E1E7036A0133C0
:101878000362DDE710B504460268136923F4405398
:10188800C1680B431361836802691A4343691A43A9
:10189800C3691A430168CB6823F4164323F00C0389
:1018A8001343CB600268536923F4407381690B4387
:1018B8005361C369B3F5004F35D00368604A93425A
:1018C80000F0918002F58062934200F08C80FFF76F
:1018D8001FFE0021031849411B1841F10001C900EE
:1018E80041EA5371DB00181863684FEA83024FEA34
:1018F800937341F10001FEF78FFC524AA2FB0031BD
:101908004909642303FB11031B013233A2FB0323A0
:101918005B0903F0F00202EB011203F00F032168E8
:1019280013448B608AE00368454A93422FD002F53E
:10193800806293422BD0FFF7EBFD0023021843EBA4
:101948000301121841F10001C90041EA5271D200A5
:10195800101841F10001626892185B41FEF75CFCC7
:10196800384AA2FB00314909642303FB1103DB0059
:101978003233A2FB03235B095A0002F4F87202EB2C
:10198800011203F00703216813448B6056E0FFF748
:10199800CFFD0023021843EB0301121841F10001A7
:1019A800C90041EA5271D200101841F10001626881
:1019B80092185B41FEF730FC224AA2FB003149092C
:1019C800642303FB1103DB003233A2FB03235B090F
:1019D8005A0002F4F87202EB011203F007032168BF
:1019E80013448B602AE0FFF7A3FD00210318494147
:1019F8001B1841F10001C90041EA5371DB001818B6
:101A080063684FEA83024FEA937341F10001FEF7DE
:101A180003FC0C4AA2FB00314909642303FB1103B0
:101A28001B013233A2FB03235B0903F0F00202EB34
:101A3800011203F00F03216813448B6010BD00BF2F
:101A4800001001401F85EB5158B310B5044690F8BB
:101A580039300BB3242384F839302268D36823F44F
:101A68000053D3602046FFF705FF2268136923F46B
:101A7800904313612268536923F02A035361226853
:101A8800D36843F40053D3600020E063202384F834
:101A9800393084F83A3010BD80F83830FFF722F832
:101AA800D8E701207047704708B50168CA6822F076
:101AB8004002CA60202280F83920FFF7F4FF002096
:101AC80008BD704708B590F83A30DBB2222B46D1F2
:101AD8008368B3F5805F0FD003690BBB03685A684E
:101AE800836A591C81621A70C38D9BB2013B9BB2F9
:101AF800C385F3B1002008BD826A036943B903684E
:101B08005B68C3F308031380836A02338362EBE7DD
:101B180003685B68DBB21380836A01338362E3E79F
:101B280003685B68826A511C816203F07F0313704B
:101B3800DAE70268D36823F02003D3600268D36829
:101B480023F48073D3600268536923F0010353615F
:101B5800202380F83A30FFF7B4FF0020CBE70220BB
:101B6800C9E7704710B5044602681368D16852691E
:101B780013F00F0005D113F0200F02D011F0200F41
:101B880013D128B112F0010213D111F4907F10D1B2
:101B980013F0800F02D011F0800F6CD113F0400FBA
:101BA80002D011F0400F6AD110BD2046FFF78AFF1E
:101BB800FAE713F0010F06D011F4807F03D0E06B31
:101BC80040F00100E06313F0040F04D01AB1E06B99
:101BD80040F00200E06313F0020F04D01AB1E06B8A
:101BE80040F00400E06313F0080F07D011F0200F55
:101BF80000D11AB1E26B42F00802E263E26B002AFC
:101C0800D2D013F0200F02D011F0200F21D1236879
:101C18005B6903F04003E26B12F0080F00D123B3B5
:101C28002046FFF7E6FD23685A6912F0400F18D0E6
:101C38005A6922F040025A61636B73B1124A1A65FD
:101C4800606BFFF775F80028AED0606B036D98479E
:101C5800AAE72046FFF736FFD9E72046FFF781FFBE
:101C6800A2E72046FFF77DFF9EE72046FFF779FFB2
:101C78000023E36398E72046FFF7C9FD94E7204671
:101C8800FFF712FF90E700BF951C000808B5806BAE
:101C98000023C385C384FFF764FF08BD0B6893FA6C
:101CA800A3F3B3FA83FC53E08D68826893FAA3F434
:101CB800B4FA84F464004FF0030E0EFA04F422EA36
:101CC800040293FAA3F4B4FA84F46400A5402A4306
:101CD8008260CC68426822EA030203FB04F42243D0
:101CE800426043E093FAA3F2B2FA82F2072A14D8C8
:101CF8004D69026A93FAA3F4B4FA84F4A4000F2697
:101D080006FA04F422EA040293FAA3F4B4FA84F477
:101D1800A400A5402A43026240E04C69456A1A0AB9
:101D280092FAA2FEBEFA8EFE4FEA8E0E0F2606FA31
:101D38000EFE25EA0E0592FAA2F2B2FA82F292009B
:101D480094402C43446229E0002070BD0CF1010C42
:101D58000B6833FA0CF243D0012202FA0CF213405A
:101D6800F4D070B54A68013A012A9DD9C26893FA3D
:101D7800A3F4B4FA84F46400032505FA04F422EA0F
:101D8800040293FAA3F4B4FA84F464000D6905FA22
:101D980004F42243C2604A68022AA3D04A6804684D
:101DA80093FAA3FEBEFA8EFE4FEA4E0E032505FAFD
:101DB8000EFE24EA0E0E93FAA3F3B3FA83F35B0044
:101DC8009A404EEA020202600CF1010C0B6833FAE9
:101DD8000CF2B9D0012202FA0CF21340F4D0C1E798
:101DE800002070470246036813F0400F2DD110B44D
:101DF800006820F47F4020F0BF000B684C68234344
:101E08008C682343CC6823430C6923434C692343E0
:101E18008C692343CC6923430C6A2343184310601D
:101E2800536823F00403C88A034353600B6AB3F56D
:101E3800005F06D00020D36923F40063D36110BC8F
:101E480070478B8C13610020F5E70120D36923F4D8
:101E58000063D3617047000070B50D4E0D4D761BC1
:101E6800B61006D0002455F8043B01349847A64222
:101E7800F9D1094E094D761B00F064F8B61006D06A
:101E8800002455F8043B01349847A642F9D170BDA7
:101E9800841F0008841F0008881F0008841F00088A
:101EA800830730B548D0541E002A3FD0CAB2034633
:101EB80001E0013C3AD303F8012B9D07F9D1032C2B
:101EC8002DD9CDB245EA05250F2C45EA054536D969
:101ED800A4F1100222F00F0C03F1200EE6444FEAA1
:101EE800121C03F1100242E9045542E9025510326E
:101EF8007245F8D10CF1010214F00C0F03EB021239
:101F080004F00F0C13D0ACF1040323F003030433E3
:101F1800134442F8045B9342FBD10CF003042CB148
:101F2800C9B21C4403F8011B9C42FBD130BD644676
:101F38001346002CF4D1F9E703461446BFE71A46C6
:101F4800A446E0E7F8B500BFF8BC08BC9E46704759
:0C1F5800F8B500BFF8BC08BC9E467047FE
:101F64000000000000000000010203040607080945
:081F740000000000010203045B
:081F7C00D4E2FF7F0100000028
:041F8400010200084E
:041F8800D901000873
:101F8C00DC0600000024F40001000000100000003A
:0400000508000B697B
:00000001FF
